{
	"data": {
		"bytecode": {
			"linkReferences": {},
			"object": "60806040526040518060400160405280600581526020016040518060400160405280600381526020017f7061740000000000000000000000000000000000000000000000000000000000815250815250600360008201518160000155602082015181600101908162000072919062000374565b5050506040518060400160405280603781526020016040518060400160405280600481526020017f70617432000000000000000000000000000000000000000000000000000000008152508152506005600082015181600001556020820151816001019081620000e3919062000374565b505050348015620000f357600080fd5b506200045b565b600081519050919050565b7f4e487b7100000000000000000000000000000000000000000000000000000000600052604160045260246000fd5b7f4e487b7100000000000000000000000000000000000000000000000000000000600052602260045260246000fd5b600060028204905060018216806200017c57607f821691505b60208210810362000192576200019162000134565b5b50919050565b60008190508160005260206000209050919050565b60006020601f8301049050919050565b600082821b905092915050565b600060088302620001fc7fffffffffffffffffffffffffffffffffffffffffffffffffffffffffffffffff82620001bd565b620002088683620001bd565b95508019841693508086168417925050509392505050565b6000819050919050565b6000819050919050565b6000620002556200024f620002498462000220565b6200022a565b62000220565b9050919050565b6000819050919050565b620002718362000234565b6200028962000280826200025c565b848454620001ca565b825550505050565b600090565b620002a062000291565b620002ad81848462000266565b505050565b5b81811015620002d557620002c960008262000296565b600181019050620002b3565b5050565b601f8211156200032457620002ee8162000198565b620002f984620001ad565b8101602085101562000309578190505b620003216200031885620001ad565b830182620002b2565b50505b505050565b600082821c905092915050565b6000620003496000198460080262000329565b1980831691505092915050565b600062000364838362000336565b9150826002028217905092915050565b6200037f82620000fa565b67ffffffffffffffff8111156200039b576200039a62000105565b5b620003a7825462000163565b620003b4828285620002d9565b600060209050601f831160018114620003ec5760008415620003d7578287015190505b620003e3858262000356565b86555062000453565b601f198416620003fc8662000198565b60005b828110156200042657848901518255600182019150602085019450602081019050620003ff565b8683101562000446578489015162000442601f89168262000336565b8355505b6001600288020188555050505b505050505050565b610bf6806200046b6000396000f3fe608060405234801561001057600080fd5b50600436106100935760003560e01c806385e022d01161006657806385e022d01461011f5780639d5e89f91461013d578063b2ac62ef1461016e578063b4a24f501461019e578063dc709777146101bd57610093565b80632d7d7154146100985780632ebce631146100b65780636057361d146100e75780636f760f4114610103575b600080fd5b6100a06101dc565b6040516100ad919061056d565b60405180910390f35b6100d060048036038101906100cb91906105c8565b6101e2565b6040516100de929190610685565b60405180910390f35b61010160048036038101906100fc91906105c8565b61029e565b005b61011d600480360381019061011891906107ea565b6102a8565b005b610127610337565b604051610134919061056d565b60405180910390f35b610157600480360381019061015291906105c8565b610340565b604051610165929190610685565b60405180910390f35b61018860048036038101906101839190610846565b6103f2565b604051610195919061056d565b60405180910390f35b6101a6610420565b6040516101b4929190610685565b60405180910390f35b6101c56104ba565b6040516101d3929190610685565b60405180910390f35b60005481565b600781815481106101f257600080fd5b906000526020600020906002020160009150905080600001549080600101805461021b906108be565b80601f0160208091040260200160405190810160405280929190818152602001828054610247906108be565b80156102945780601f1061026957610100808354040283529160200191610294565b820191906000526020600020905b81548152906001019060200180831161027757829003601f168201915b5050505050905082565b8060008190555050565b60006040518060400160405280838152602001848152509050600781908060018154018082558091505060019003906000526020600020906002020160009091909190915060008201518160000155602082015181600101908161030c9190610a9b565b505050816001846040516103209190610ba9565b908152602001604051809103902081905550505050565b60008054905090565b6008816003811061035057600080fd5b6002020160009150905080600001549080600101805461036f906108be565b80601f016020809104026020016040519081016040528092919081815260200182805461039b906108be565b80156103e85780601f106103bd576101008083540402835291602001916103e8565b820191906000526020600020905b8154815290600101906020018083116103cb57829003601f168201915b5050505050905082565b6001818051602081018201805184825260208301602085012081835280955050505050506000915090505481565b6003806000015490806001018054610437906108be565b80601f0160208091040260200160405190810160405280929190818152602001828054610463906108be565b80156104b05780601f10610485576101008083540402835291602001916104b0565b820191906000526020600020905b81548152906001019060200180831161049357829003601f168201915b5050505050905082565b60058060000154908060010180546104d1906108be565b80601f01602080910402602001604051908101604052809291908181526020018280546104fd906108be565b801561054a5780601f1061051f5761010080835404028352916020019161054a565b820191906000526020600020905b81548152906001019060200180831161052d57829003601f168201915b5050505050905082565b6000819050919050565b61056781610554565b82525050565b6000602082019050610582600083018461055e565b92915050565b6000604051905090565b600080fd5b600080fd5b6105a581610554565b81146105b057600080fd5b50565b6000813590506105c28161059c565b92915050565b6000602082840312156105de576105dd610592565b5b60006105ec848285016105b3565b91505092915050565b600081519050919050565b600082825260208201905092915050565b60005b8381101561062f578082015181840152602081019050610614565b60008484015250505050565b6000601f19601f8301169050919050565b6000610657826105f5565b6106618185610600565b9350610671818560208601610611565b61067a8161063b565b840191505092915050565b600060408201905061069a600083018561055e565b81810360208301526106ac818461064c565b90509392505050565b600080fd5b600080fd5b7f4e487b7100000000000000000000000000000000000000000000000000000000600052604160045260246000fd5b6106f78261063b565b810181811067ffffffffffffffff82111715610716576107156106bf565b5b80604052505050565b6000610729610588565b905061073582826106ee565b919050565b600067ffffffffffffffff821115610755576107546106bf565b5b61075e8261063b565b9050602081019050919050565b82818337600083830152505050565b600061078d6107888461073a565b61071f565b9050828152602081018484840111156107a9576107a86106ba565b5b6107b484828561076b565b509392505050565b600082601f8301126107d1576107d06106b5565b5b81356107e184826020860161077a565b91505092915050565b6000806040838503121561080157610800610592565b5b600083013567ffffffffffffffff81111561081f5761081e610597565b5b61082b858286016107bc565b925050602061083c858286016105b3565b9150509250929050565b60006020828403121561085c5761085b610592565b5b600082013567ffffffffffffffff81111561087a57610879610597565b5b610886848285016107bc565b91505092915050565b7f4e487b7100000000000000000000000000000000000000000000000000000000600052602260045260246000fd5b600060028204905060018216806108d657607f821691505b6020821081036108e9576108e861088f565b5b50919050565b60008190508160005260206000209050919050565b60006020601f8301049050919050565b600082821b905092915050565b6000600883026109517fffffffffffffffffffffffffffffffffffffffffffffffffffffffffffffffff82610914565b61095b8683610914565b95508019841693508086168417925050509392505050565b6000819050919050565b600061099861099361098e84610554565b610973565b610554565b9050919050565b6000819050919050565b6109b28361097d565b6109c66109be8261099f565b848454610921565b825550505050565b600090565b6109db6109ce565b6109e68184846109a9565b505050565b5b81811015610a0a576109ff6000826109d3565b6001810190506109ec565b5050565b601f821115610a4f57610a20816108ef565b610a2984610904565b81016020851015610a38578190505b610a4c610a4485610904565b8301826109eb565b50505b505050565b600082821c905092915050565b6000610a7260001984600802610a54565b1980831691505092915050565b6000610a8b8383610a61565b9150826002028217905092915050565b610aa4826105f5565b67ffffffffffffffff811115610abd57610abc6106bf565b5b610ac782546108be565b610ad2828285610a0e565b600060209050601f831160018114610b055760008415610af3578287015190505b610afd8582610a7f565b865550610b65565b601f198416610b13866108ef565b60005b82811015610b3b57848901518255600182019150602085019450602081019050610b16565b86831015610b585784890151610b54601f891682610a61565b8355505b6001600288020188555050505b505050505050565b600081905092915050565b6000610b83826105f5565b610b8d8185610b6d565b9350610b9d818560208601610611565b80840191505092915050565b6000610bb58284610b78565b91508190509291505056fea2646970667358221220aa5f21a60961097b1c550bf5320c4b3f51065dcde05b51aab13e5112221b927964736f6c63430008120033",
			"opcodes": "PUSH1 0x80 PUSH1 0x40 MSTORE PUSH1 0x40 MLOAD DUP1 PUSH1 0x40 ADD PUSH1 0x40 MSTORE DUP1 PUSH1 0x5 DUP2 MSTORE PUSH1 0x20 ADD PUSH1 0x40 MLOAD DUP1 PUSH1 0x40 ADD PUSH1 0x40 MSTORE DUP1 PUSH1 0x3 DUP2 MSTORE PUSH1 0x20 ADD PUSH32 0x7061740000000000000000000000000000000000000000000000000000000000 DUP2 MSTORE POP DUP2 MSTORE POP PUSH1 0x3 PUSH1 0x0 DUP3 ADD MLOAD DUP2 PUSH1 0x0 ADD SSTORE PUSH1 0x20 DUP3 ADD MLOAD DUP2 PUSH1 0x1 ADD SWAP1 DUP2 PUSH3 0x72 SWAP2 SWAP1 PUSH3 0x374 JUMP JUMPDEST POP POP POP PUSH1 0x40 MLOAD DUP1 PUSH1 0x40 ADD PUSH1 0x40 MSTORE DUP1 PUSH1 0x37 DUP2 MSTORE PUSH1 0x20 ADD PUSH1 0x40 MLOAD DUP1 PUSH1 0x40 ADD PUSH1 0x40 MSTORE DUP1 PUSH1 0x4 DUP2 MSTORE PUSH1 0x20 ADD PUSH32 0x7061743200000000000000000000000000000000000000000000000000000000 DUP2 MSTORE POP DUP2 MSTORE POP PUSH1 0x5 PUSH1 0x0 DUP3 ADD MLOAD DUP2 PUSH1 0x0 ADD SSTORE PUSH1 0x20 DUP3 ADD MLOAD DUP2 PUSH1 0x1 ADD SWAP1 DUP2 PUSH3 0xE3 SWAP2 SWAP1 PUSH3 0x374 JUMP JUMPDEST POP POP POP CALLVALUE DUP1 ISZERO PUSH3 0xF3 JUMPI PUSH1 0x0 DUP1 REVERT JUMPDEST POP PUSH3 0x45B JUMP JUMPDEST PUSH1 0x0 DUP2 MLOAD SWAP1 POP SWAP2 SWAP1 POP JUMP JUMPDEST PUSH32 0x4E487B7100000000000000000000000000000000000000000000000000000000 PUSH1 0x0 MSTORE PUSH1 0x41 PUSH1 0x4 MSTORE PUSH1 0x24 PUSH1 0x0 REVERT JUMPDEST PUSH32 0x4E487B7100000000000000000000000000000000000000000000000000000000 PUSH1 0x0 MSTORE PUSH1 0x22 PUSH1 0x4 MSTORE PUSH1 0x24 PUSH1 0x0 REVERT JUMPDEST PUSH1 0x0 PUSH1 0x2 DUP3 DIV SWAP1 POP PUSH1 0x1 DUP3 AND DUP1 PUSH3 0x17C JUMPI PUSH1 0x7F DUP3 AND SWAP2 POP JUMPDEST PUSH1 0x20 DUP3 LT DUP2 SUB PUSH3 0x192 JUMPI PUSH3 0x191 PUSH3 0x134 JUMP JUMPDEST JUMPDEST POP SWAP2 SWAP1 POP JUMP JUMPDEST PUSH1 0x0 DUP2 SWAP1 POP DUP2 PUSH1 0x0 MSTORE PUSH1 0x20 PUSH1 0x0 KECCAK256 SWAP1 POP SWAP2 SWAP1 POP JUMP JUMPDEST PUSH1 0x0 PUSH1 0x20 PUSH1 0x1F DUP4 ADD DIV SWAP1 POP SWAP2 SWAP1 POP JUMP JUMPDEST PUSH1 0x0 DUP3 DUP3 SHL SWAP1 POP SWAP3 SWAP2 POP POP JUMP JUMPDEST PUSH1 0x0 PUSH1 0x8 DUP4 MUL PUSH3 0x1FC PUSH32 0xFFFFFFFFFFFFFFFFFFFFFFFFFFFFFFFFFFFFFFFFFFFFFFFFFFFFFFFFFFFFFFFF DUP3 PUSH3 0x1BD JUMP JUMPDEST PUSH3 0x208 DUP7 DUP4 PUSH3 0x1BD JUMP JUMPDEST SWAP6 POP DUP1 NOT DUP5 AND SWAP4 POP DUP1 DUP7 AND DUP5 OR SWAP3 POP POP POP SWAP4 SWAP3 POP POP POP JUMP JUMPDEST PUSH1 0x0 DUP2 SWAP1 POP SWAP2 SWAP1 POP JUMP JUMPDEST PUSH1 0x0 DUP2 SWAP1 POP SWAP2 SWAP1 POP JUMP JUMPDEST PUSH1 0x0 PUSH3 0x255 PUSH3 0x24F PUSH3 0x249 DUP5 PUSH3 0x220 JUMP JUMPDEST PUSH3 0x22A JUMP JUMPDEST PUSH3 0x220 JUMP JUMPDEST SWAP1 POP SWAP2 SWAP1 POP JUMP JUMPDEST PUSH1 0x0 DUP2 SWAP1 POP SWAP2 SWAP1 POP JUMP JUMPDEST PUSH3 0x271 DUP4 PUSH3 0x234 JUMP JUMPDEST PUSH3 0x289 PUSH3 0x280 DUP3 PUSH3 0x25C JUMP JUMPDEST DUP5 DUP5 SLOAD PUSH3 0x1CA JUMP JUMPDEST DUP3 SSTORE POP POP POP POP JUMP JUMPDEST PUSH1 0x0 SWAP1 JUMP JUMPDEST PUSH3 0x2A0 PUSH3 0x291 JUMP JUMPDEST PUSH3 0x2AD DUP2 DUP5 DUP5 PUSH3 0x266 JUMP JUMPDEST POP POP POP JUMP JUMPDEST JUMPDEST DUP2 DUP2 LT ISZERO PUSH3 0x2D5 JUMPI PUSH3 0x2C9 PUSH1 0x0 DUP3 PUSH3 0x296 JUMP JUMPDEST PUSH1 0x1 DUP2 ADD SWAP1 POP PUSH3 0x2B3 JUMP JUMPDEST POP POP JUMP JUMPDEST PUSH1 0x1F DUP3 GT ISZERO PUSH3 0x324 JUMPI PUSH3 0x2EE DUP2 PUSH3 0x198 JUMP JUMPDEST PUSH3 0x2F9 DUP5 PUSH3 0x1AD JUMP JUMPDEST DUP2 ADD PUSH1 0x20 DUP6 LT ISZERO PUSH3 0x309 JUMPI DUP2 SWAP1 POP JUMPDEST PUSH3 0x321 PUSH3 0x318 DUP6 PUSH3 0x1AD JUMP JUMPDEST DUP4 ADD DUP3 PUSH3 0x2B2 JUMP JUMPDEST POP POP JUMPDEST POP POP POP JUMP JUMPDEST PUSH1 0x0 DUP3 DUP3 SHR SWAP1 POP SWAP3 SWAP2 POP POP JUMP JUMPDEST PUSH1 0x0 PUSH3 0x349 PUSH1 0x0 NOT DUP5 PUSH1 0x8 MUL PUSH3 0x329 JUMP JUMPDEST NOT DUP1 DUP4 AND SWAP2 POP POP SWAP3 SWAP2 POP POP JUMP JUMPDEST PUSH1 0x0 PUSH3 0x364 DUP4 DUP4 PUSH3 0x336 JUMP JUMPDEST SWAP2 POP DUP3 PUSH1 0x2 MUL DUP3 OR SWAP1 POP SWAP3 SWAP2 POP POP JUMP JUMPDEST PUSH3 0x37F DUP3 PUSH3 0xFA JUMP JUMPDEST PUSH8 0xFFFFFFFFFFFFFFFF DUP2 GT ISZERO PUSH3 0x39B JUMPI PUSH3 0x39A PUSH3 0x105 JUMP JUMPDEST JUMPDEST PUSH3 0x3A7 DUP3 SLOAD PUSH3 0x163 JUMP JUMPDEST PUSH3 0x3B4 DUP3 DUP3 DUP6 PUSH3 0x2D9 JUMP JUMPDEST PUSH1 0x0 PUSH1 0x20 SWAP1 POP PUSH1 0x1F DUP4 GT PUSH1 0x1 DUP2 EQ PUSH3 0x3EC JUMPI PUSH1 0x0 DUP5 ISZERO PUSH3 0x3D7 JUMPI DUP3 DUP8 ADD MLOAD SWAP1 POP JUMPDEST PUSH3 0x3E3 DUP6 DUP3 PUSH3 0x356 JUMP JUMPDEST DUP7 SSTORE POP PUSH3 0x453 JUMP JUMPDEST PUSH1 0x1F NOT DUP5 AND PUSH3 0x3FC DUP7 PUSH3 0x198 JUMP JUMPDEST PUSH1 0x0 JUMPDEST DUP3 DUP2 LT ISZERO PUSH3 0x426 JUMPI DUP5 DUP10 ADD MLOAD DUP3 SSTORE PUSH1 0x1 DUP3 ADD SWAP2 POP PUSH1 0x20 DUP6 ADD SWAP5 POP PUSH1 0x20 DUP2 ADD SWAP1 POP PUSH3 0x3FF JUMP JUMPDEST DUP7 DUP4 LT ISZERO PUSH3 0x446 JUMPI DUP5 DUP10 ADD MLOAD PUSH3 0x442 PUSH1 0x1F DUP10 AND DUP3 PUSH3 0x336 JUMP JUMPDEST DUP4 SSTORE POP JUMPDEST PUSH1 0x1 PUSH1 0x2 DUP9 MUL ADD DUP9 SSTORE POP POP POP JUMPDEST POP POP POP POP POP POP JUMP JUMPDEST PUSH2 0xBF6 DUP1 PUSH3 0x46B PUSH1 0x0 CODECOPY PUSH1 0x0 RETURN INVALID PUSH1 0x80 PUSH1 0x40 MSTORE CALLVALUE DUP1 ISZERO PUSH2 0x10 JUMPI PUSH1 0x0 DUP1 REVERT JUMPDEST POP PUSH1 0x4 CALLDATASIZE LT PUSH2 0x93 JUMPI PUSH1 0x0 CALLDATALOAD PUSH1 0xE0 SHR DUP1 PUSH4 0x85E022D0 GT PUSH2 0x66 JUMPI DUP1 PUSH4 0x85E022D0 EQ PUSH2 0x11F JUMPI DUP1 PUSH4 0x9D5E89F9 EQ PUSH2 0x13D JUMPI DUP1 PUSH4 0xB2AC62EF EQ PUSH2 0x16E JUMPI DUP1 PUSH4 0xB4A24F50 EQ PUSH2 0x19E JUMPI DUP1 PUSH4 0xDC709777 EQ PUSH2 0x1BD JUMPI PUSH2 0x93 JUMP JUMPDEST DUP1 PUSH4 0x2D7D7154 EQ PUSH2 0x98 JUMPI DUP1 PUSH4 0x2EBCE631 EQ PUSH2 0xB6 JUMPI DUP1 PUSH4 0x6057361D EQ PUSH2 0xE7 JUMPI DUP1 PUSH4 0x6F760F41 EQ PUSH2 0x103 JUMPI JUMPDEST PUSH1 0x0 DUP1 REVERT JUMPDEST PUSH2 0xA0 PUSH2 0x1DC JUMP JUMPDEST PUSH1 0x40 MLOAD PUSH2 0xAD SWAP2 SWAP1 PUSH2 0x56D JUMP JUMPDEST PUSH1 0x40 MLOAD DUP1 SWAP2 SUB SWAP1 RETURN JUMPDEST PUSH2 0xD0 PUSH1 0x4 DUP1 CALLDATASIZE SUB DUP2 ADD SWAP1 PUSH2 0xCB SWAP2 SWAP1 PUSH2 0x5C8 JUMP JUMPDEST PUSH2 0x1E2 JUMP JUMPDEST PUSH1 0x40 MLOAD PUSH2 0xDE SWAP3 SWAP2 SWAP1 PUSH2 0x685 JUMP JUMPDEST PUSH1 0x40 MLOAD DUP1 SWAP2 SUB SWAP1 RETURN JUMPDEST PUSH2 0x101 PUSH1 0x4 DUP1 CALLDATASIZE SUB DUP2 ADD SWAP1 PUSH2 0xFC SWAP2 SWAP1 PUSH2 0x5C8 JUMP JUMPDEST PUSH2 0x29E JUMP JUMPDEST STOP JUMPDEST PUSH2 0x11D PUSH1 0x4 DUP1 CALLDATASIZE SUB DUP2 ADD SWAP1 PUSH2 0x118 SWAP2 SWAP1 PUSH2 0x7EA JUMP JUMPDEST PUSH2 0x2A8 JUMP JUMPDEST STOP JUMPDEST PUSH2 0x127 PUSH2 0x337 JUMP JUMPDEST PUSH1 0x40 MLOAD PUSH2 0x134 SWAP2 SWAP1 PUSH2 0x56D JUMP JUMPDEST PUSH1 0x40 MLOAD DUP1 SWAP2 SUB SWAP1 RETURN JUMPDEST PUSH2 0x157 PUSH1 0x4 DUP1 CALLDATASIZE SUB DUP2 ADD SWAP1 PUSH2 0x152 SWAP2 SWAP1 PUSH2 0x5C8 JUMP JUMPDEST PUSH2 0x340 JUMP JUMPDEST PUSH1 0x40 MLOAD PUSH2 0x165 SWAP3 SWAP2 SWAP1 PUSH2 0x685 JUMP JUMPDEST PUSH1 0x40 MLOAD DUP1 SWAP2 SUB SWAP1 RETURN JUMPDEST PUSH2 0x188 PUSH1 0x4 DUP1 CALLDATASIZE SUB DUP2 ADD SWAP1 PUSH2 0x183 SWAP2 SWAP1 PUSH2 0x846 JUMP JUMPDEST PUSH2 0x3F2 JUMP JUMPDEST PUSH1 0x40 MLOAD PUSH2 0x195 SWAP2 SWAP1 PUSH2 0x56D JUMP JUMPDEST PUSH1 0x40 MLOAD DUP1 SWAP2 SUB SWAP1 RETURN JUMPDEST PUSH2 0x1A6 PUSH2 0x420 JUMP JUMPDEST PUSH1 0x40 MLOAD PUSH2 0x1B4 SWAP3 SWAP2 SWAP1 PUSH2 0x685 JUMP JUMPDEST PUSH1 0x40 MLOAD DUP1 SWAP2 SUB SWAP1 RETURN JUMPDEST PUSH2 0x1C5 PUSH2 0x4BA JUMP JUMPDEST PUSH1 0x40 MLOAD PUSH2 0x1D3 SWAP3 SWAP2 SWAP1 PUSH2 0x685 JUMP JUMPDEST PUSH1 0x40 MLOAD DUP1 SWAP2 SUB SWAP1 RETURN JUMPDEST PUSH1 0x0 SLOAD DUP2 JUMP JUMPDEST PUSH1 0x7 DUP2 DUP2 SLOAD DUP2 LT PUSH2 0x1F2 JUMPI PUSH1 0x0 DUP1 REVERT JUMPDEST SWAP1 PUSH1 0x0 MSTORE PUSH1 0x20 PUSH1 0x0 KECCAK256 SWAP1 PUSH1 0x2 MUL ADD PUSH1 0x0 SWAP2 POP SWAP1 POP DUP1 PUSH1 0x0 ADD SLOAD SWAP1 DUP1 PUSH1 0x1 ADD DUP1 SLOAD PUSH2 0x21B SWAP1 PUSH2 0x8BE JUMP JUMPDEST DUP1 PUSH1 0x1F ADD PUSH1 0x20 DUP1 SWAP2 DIV MUL PUSH1 0x20 ADD PUSH1 0x40 MLOAD SWAP1 DUP2 ADD PUSH1 0x40 MSTORE DUP1 SWAP3 SWAP2 SWAP1 DUP2 DUP2 MSTORE PUSH1 0x20 ADD DUP3 DUP1 SLOAD PUSH2 0x247 SWAP1 PUSH2 0x8BE JUMP JUMPDEST DUP1 ISZERO PUSH2 0x294 JUMPI DUP1 PUSH1 0x1F LT PUSH2 0x269 JUMPI PUSH2 0x100 DUP1 DUP4 SLOAD DIV MUL DUP4 MSTORE SWAP2 PUSH1 0x20 ADD SWAP2 PUSH2 0x294 JUMP JUMPDEST DUP3 ADD SWAP2 SWAP1 PUSH1 0x0 MSTORE PUSH1 0x20 PUSH1 0x0 KECCAK256 SWAP1 JUMPDEST DUP2 SLOAD DUP2 MSTORE SWAP1 PUSH1 0x1 ADD SWAP1 PUSH1 0x20 ADD DUP1 DUP4 GT PUSH2 0x277 JUMPI DUP3 SWAP1 SUB PUSH1 0x1F AND DUP3 ADD SWAP2 JUMPDEST POP POP POP POP POP SWAP1 POP DUP3 JUMP JUMPDEST DUP1 PUSH1 0x0 DUP2 SWAP1 SSTORE POP POP JUMP JUMPDEST PUSH1 0x0 PUSH1 0x40 MLOAD DUP1 PUSH1 0x40 ADD PUSH1 0x40 MSTORE DUP1 DUP4 DUP2 MSTORE PUSH1 0x20 ADD DUP5 DUP2 MSTORE POP SWAP1 POP PUSH1 0x7 DUP2 SWAP1 DUP1 PUSH1 0x1 DUP2 SLOAD ADD DUP1 DUP3 SSTORE DUP1 SWAP2 POP POP PUSH1 0x1 SWAP1 SUB SWAP1 PUSH1 0x0 MSTORE PUSH1 0x20 PUSH1 0x0 KECCAK256 SWAP1 PUSH1 0x2 MUL ADD PUSH1 0x0 SWAP1 SWAP2 SWAP1 SWAP2 SWAP1 SWAP2 POP PUSH1 0x0 DUP3 ADD MLOAD DUP2 PUSH1 0x0 ADD SSTORE PUSH1 0x20 DUP3 ADD MLOAD DUP2 PUSH1 0x1 ADD SWAP1 DUP2 PUSH2 0x30C SWAP2 SWAP1 PUSH2 0xA9B JUMP JUMPDEST POP POP POP DUP2 PUSH1 0x1 DUP5 PUSH1 0x40 MLOAD PUSH2 0x320 SWAP2 SWAP1 PUSH2 0xBA9 JUMP JUMPDEST SWAP1 DUP2 MSTORE PUSH1 0x20 ADD PUSH1 0x40 MLOAD DUP1 SWAP2 SUB SWAP1 KECCAK256 DUP2 SWAP1 SSTORE POP POP POP POP JUMP JUMPDEST PUSH1 0x0 DUP1 SLOAD SWAP1 POP SWAP1 JUMP JUMPDEST PUSH1 0x8 DUP2 PUSH1 0x3 DUP2 LT PUSH2 0x350 JUMPI PUSH1 0x0 DUP1 REVERT JUMPDEST PUSH1 0x2 MUL ADD PUSH1 0x0 SWAP2 POP SWAP1 POP DUP1 PUSH1 0x0 ADD SLOAD SWAP1 DUP1 PUSH1 0x1 ADD DUP1 SLOAD PUSH2 0x36F SWAP1 PUSH2 0x8BE JUMP JUMPDEST DUP1 PUSH1 0x1F ADD PUSH1 0x20 DUP1 SWAP2 DIV MUL PUSH1 0x20 ADD PUSH1 0x40 MLOAD SWAP1 DUP2 ADD PUSH1 0x40 MSTORE DUP1 SWAP3 SWAP2 SWAP1 DUP2 DUP2 MSTORE PUSH1 0x20 ADD DUP3 DUP1 SLOAD PUSH2 0x39B SWAP1 PUSH2 0x8BE JUMP JUMPDEST DUP1 ISZERO PUSH2 0x3E8 JUMPI DUP1 PUSH1 0x1F LT PUSH2 0x3BD JUMPI PUSH2 0x100 DUP1 DUP4 SLOAD DIV MUL DUP4 MSTORE SWAP2 PUSH1 0x20 ADD SWAP2 PUSH2 0x3E8 JUMP JUMPDEST DUP3 ADD SWAP2 SWAP1 PUSH1 0x0 MSTORE PUSH1 0x20 PUSH1 0x0 KECCAK256 SWAP1 JUMPDEST DUP2 SLOAD DUP2 MSTORE SWAP1 PUSH1 0x1 ADD SWAP1 PUSH1 0x20 ADD DUP1 DUP4 GT PUSH2 0x3CB JUMPI DUP3 SWAP1 SUB PUSH1 0x1F AND DUP3 ADD SWAP2 JUMPDEST POP POP POP POP POP SWAP1 POP DUP3 JUMP JUMPDEST PUSH1 0x1 DUP2 DUP1 MLOAD PUSH1 0x20 DUP2 ADD DUP3 ADD DUP1 MLOAD DUP5 DUP3 MSTORE PUSH1 0x20 DUP4 ADD PUSH1 0x20 DUP6 ADD KECCAK256 DUP2 DUP4 MSTORE DUP1 SWAP6 POP POP POP POP POP POP PUSH1 0x0 SWAP2 POP SWAP1 POP SLOAD DUP2 JUMP JUMPDEST PUSH1 0x3 DUP1 PUSH1 0x0 ADD SLOAD SWAP1 DUP1 PUSH1 0x1 ADD DUP1 SLOAD PUSH2 0x437 SWAP1 PUSH2 0x8BE JUMP JUMPDEST DUP1 PUSH1 0x1F ADD PUSH1 0x20 DUP1 SWAP2 DIV MUL PUSH1 0x20 ADD PUSH1 0x40 MLOAD SWAP1 DUP2 ADD PUSH1 0x40 MSTORE DUP1 SWAP3 SWAP2 SWAP1 DUP2 DUP2 MSTORE PUSH1 0x20 ADD DUP3 DUP1 SLOAD PUSH2 0x463 SWAP1 PUSH2 0x8BE JUMP JUMPDEST DUP1 ISZERO PUSH2 0x4B0 JUMPI DUP1 PUSH1 0x1F LT PUSH2 0x485 JUMPI PUSH2 0x100 DUP1 DUP4 SLOAD DIV MUL DUP4 MSTORE SWAP2 PUSH1 0x20 ADD SWAP2 PUSH2 0x4B0 JUMP JUMPDEST DUP3 ADD SWAP2 SWAP1 PUSH1 0x0 MSTORE PUSH1 0x20 PUSH1 0x0 KECCAK256 SWAP1 JUMPDEST DUP2 SLOAD DUP2 MSTORE SWAP1 PUSH1 0x1 ADD SWAP1 PUSH1 0x20 ADD DUP1 DUP4 GT PUSH2 0x493 JUMPI DUP3 SWAP1 SUB PUSH1 0x1F AND DUP3 ADD SWAP2 JUMPDEST POP POP POP POP POP SWAP1 POP DUP3 JUMP JUMPDEST PUSH1 0x5 DUP1 PUSH1 0x0 ADD SLOAD SWAP1 DUP1 PUSH1 0x1 ADD DUP1 SLOAD PUSH2 0x4D1 SWAP1 PUSH2 0x8BE JUMP JUMPDEST DUP1 PUSH1 0x1F ADD PUSH1 0x20 DUP1 SWAP2 DIV MUL PUSH1 0x20 ADD PUSH1 0x40 MLOAD SWAP1 DUP2 ADD PUSH1 0x40 MSTORE DUP1 SWAP3 SWAP2 SWAP1 DUP2 DUP2 MSTORE PUSH1 0x20 ADD DUP3 DUP1 SLOAD PUSH2 0x4FD SWAP1 PUSH2 0x8BE JUMP JUMPDEST DUP1 ISZERO PUSH2 0x54A JUMPI DUP1 PUSH1 0x1F LT PUSH2 0x51F JUMPI PUSH2 0x100 DUP1 DUP4 SLOAD DIV MUL DUP4 MSTORE SWAP2 PUSH1 0x20 ADD SWAP2 PUSH2 0x54A JUMP JUMPDEST DUP3 ADD SWAP2 SWAP1 PUSH1 0x0 MSTORE PUSH1 0x20 PUSH1 0x0 KECCAK256 SWAP1 JUMPDEST DUP2 SLOAD DUP2 MSTORE SWAP1 PUSH1 0x1 ADD SWAP1 PUSH1 0x20 ADD DUP1 DUP4 GT PUSH2 0x52D JUMPI DUP3 SWAP1 SUB PUSH1 0x1F AND DUP3 ADD SWAP2 JUMPDEST POP POP POP POP POP SWAP1 POP DUP3 JUMP JUMPDEST PUSH1 0x0 DUP2 SWAP1 POP SWAP2 SWAP1 POP JUMP JUMPDEST PUSH2 0x567 DUP2 PUSH2 0x554 JUMP JUMPDEST DUP3 MSTORE POP POP JUMP JUMPDEST PUSH1 0x0 PUSH1 0x20 DUP3 ADD SWAP1 POP PUSH2 0x582 PUSH1 0x0 DUP4 ADD DUP5 PUSH2 0x55E JUMP JUMPDEST SWAP3 SWAP2 POP POP JUMP JUMPDEST PUSH1 0x0 PUSH1 0x40 MLOAD SWAP1 POP SWAP1 JUMP JUMPDEST PUSH1 0x0 DUP1 REVERT JUMPDEST PUSH1 0x0 DUP1 REVERT JUMPDEST PUSH2 0x5A5 DUP2 PUSH2 0x554 JUMP JUMPDEST DUP2 EQ PUSH2 0x5B0 JUMPI PUSH1 0x0 DUP1 REVERT JUMPDEST POP JUMP JUMPDEST PUSH1 0x0 DUP2 CALLDATALOAD SWAP1 POP PUSH2 0x5C2 DUP2 PUSH2 0x59C JUMP JUMPDEST SWAP3 SWAP2 POP POP JUMP JUMPDEST PUSH1 0x0 PUSH1 0x20 DUP3 DUP5 SUB SLT ISZERO PUSH2 0x5DE JUMPI PUSH2 0x5DD PUSH2 0x592 JUMP JUMPDEST JUMPDEST PUSH1 0x0 PUSH2 0x5EC DUP5 DUP3 DUP6 ADD PUSH2 0x5B3 JUMP JUMPDEST SWAP2 POP POP SWAP3 SWAP2 POP POP JUMP JUMPDEST PUSH1 0x0 DUP2 MLOAD SWAP1 POP SWAP2 SWAP1 POP JUMP JUMPDEST PUSH1 0x0 DUP3 DUP3 MSTORE PUSH1 0x20 DUP3 ADD SWAP1 POP SWAP3 SWAP2 POP POP JUMP JUMPDEST PUSH1 0x0 JUMPDEST DUP4 DUP2 LT ISZERO PUSH2 0x62F JUMPI DUP1 DUP3 ADD MLOAD DUP2 DUP5 ADD MSTORE PUSH1 0x20 DUP2 ADD SWAP1 POP PUSH2 0x614 JUMP JUMPDEST PUSH1 0x0 DUP5 DUP5 ADD MSTORE POP POP POP POP JUMP JUMPDEST PUSH1 0x0 PUSH1 0x1F NOT PUSH1 0x1F DUP4 ADD AND SWAP1 POP SWAP2 SWAP1 POP JUMP JUMPDEST PUSH1 0x0 PUSH2 0x657 DUP3 PUSH2 0x5F5 JUMP JUMPDEST PUSH2 0x661 DUP2 DUP6 PUSH2 0x600 JUMP JUMPDEST SWAP4 POP PUSH2 0x671 DUP2 DUP6 PUSH1 0x20 DUP7 ADD PUSH2 0x611 JUMP JUMPDEST PUSH2 0x67A DUP2 PUSH2 0x63B JUMP JUMPDEST DUP5 ADD SWAP2 POP POP SWAP3 SWAP2 POP POP JUMP JUMPDEST PUSH1 0x0 PUSH1 0x40 DUP3 ADD SWAP1 POP PUSH2 0x69A PUSH1 0x0 DUP4 ADD DUP6 PUSH2 0x55E JUMP JUMPDEST DUP2 DUP2 SUB PUSH1 0x20 DUP4 ADD MSTORE PUSH2 0x6AC DUP2 DUP5 PUSH2 0x64C JUMP JUMPDEST SWAP1 POP SWAP4 SWAP3 POP POP POP JUMP JUMPDEST PUSH1 0x0 DUP1 REVERT JUMPDEST PUSH1 0x0 DUP1 REVERT JUMPDEST PUSH32 0x4E487B7100000000000000000000000000000000000000000000000000000000 PUSH1 0x0 MSTORE PUSH1 0x41 PUSH1 0x4 MSTORE PUSH1 0x24 PUSH1 0x0 REVERT JUMPDEST PUSH2 0x6F7 DUP3 PUSH2 0x63B JUMP JUMPDEST DUP2 ADD DUP2 DUP2 LT PUSH8 0xFFFFFFFFFFFFFFFF DUP3 GT OR ISZERO PUSH2 0x716 JUMPI PUSH2 0x715 PUSH2 0x6BF JUMP JUMPDEST JUMPDEST DUP1 PUSH1 0x40 MSTORE POP POP POP JUMP JUMPDEST PUSH1 0x0 PUSH2 0x729 PUSH2 0x588 JUMP JUMPDEST SWAP1 POP PUSH2 0x735 DUP3 DUP3 PUSH2 0x6EE JUMP JUMPDEST SWAP2 SWAP1 POP JUMP JUMPDEST PUSH1 0x0 PUSH8 0xFFFFFFFFFFFFFFFF DUP3 GT ISZERO PUSH2 0x755 JUMPI PUSH2 0x754 PUSH2 0x6BF JUMP JUMPDEST JUMPDEST PUSH2 0x75E DUP3 PUSH2 0x63B JUMP JUMPDEST SWAP1 POP PUSH1 0x20 DUP2 ADD SWAP1 POP SWAP2 SWAP1 POP JUMP JUMPDEST DUP3 DUP2 DUP4 CALLDATACOPY PUSH1 0x0 DUP4 DUP4 ADD MSTORE POP POP POP JUMP JUMPDEST PUSH1 0x0 PUSH2 0x78D PUSH2 0x788 DUP5 PUSH2 0x73A JUMP JUMPDEST PUSH2 0x71F JUMP JUMPDEST SWAP1 POP DUP3 DUP2 MSTORE PUSH1 0x20 DUP2 ADD DUP5 DUP5 DUP5 ADD GT ISZERO PUSH2 0x7A9 JUMPI PUSH2 0x7A8 PUSH2 0x6BA JUMP JUMPDEST JUMPDEST PUSH2 0x7B4 DUP5 DUP3 DUP6 PUSH2 0x76B JUMP JUMPDEST POP SWAP4 SWAP3 POP POP POP JUMP JUMPDEST PUSH1 0x0 DUP3 PUSH1 0x1F DUP4 ADD SLT PUSH2 0x7D1 JUMPI PUSH2 0x7D0 PUSH2 0x6B5 JUMP JUMPDEST JUMPDEST DUP2 CALLDATALOAD PUSH2 0x7E1 DUP5 DUP3 PUSH1 0x20 DUP7 ADD PUSH2 0x77A JUMP JUMPDEST SWAP2 POP POP SWAP3 SWAP2 POP POP JUMP JUMPDEST PUSH1 0x0 DUP1 PUSH1 0x40 DUP4 DUP6 SUB SLT ISZERO PUSH2 0x801 JUMPI PUSH2 0x800 PUSH2 0x592 JUMP JUMPDEST JUMPDEST PUSH1 0x0 DUP4 ADD CALLDATALOAD PUSH8 0xFFFFFFFFFFFFFFFF DUP2 GT ISZERO PUSH2 0x81F JUMPI PUSH2 0x81E PUSH2 0x597 JUMP JUMPDEST JUMPDEST PUSH2 0x82B DUP6 DUP3 DUP7 ADD PUSH2 0x7BC JUMP JUMPDEST SWAP3 POP POP PUSH1 0x20 PUSH2 0x83C DUP6 DUP3 DUP7 ADD PUSH2 0x5B3 JUMP JUMPDEST SWAP2 POP POP SWAP3 POP SWAP3 SWAP1 POP JUMP JUMPDEST PUSH1 0x0 PUSH1 0x20 DUP3 DUP5 SUB SLT ISZERO PUSH2 0x85C JUMPI PUSH2 0x85B PUSH2 0x592 JUMP JUMPDEST JUMPDEST PUSH1 0x0 DUP3 ADD CALLDATALOAD PUSH8 0xFFFFFFFFFFFFFFFF DUP2 GT ISZERO PUSH2 0x87A JUMPI PUSH2 0x879 PUSH2 0x597 JUMP JUMPDEST JUMPDEST PUSH2 0x886 DUP5 DUP3 DUP6 ADD PUSH2 0x7BC JUMP JUMPDEST SWAP2 POP POP SWAP3 SWAP2 POP POP JUMP JUMPDEST PUSH32 0x4E487B7100000000000000000000000000000000000000000000000000000000 PUSH1 0x0 MSTORE PUSH1 0x22 PUSH1 0x4 MSTORE PUSH1 0x24 PUSH1 0x0 REVERT JUMPDEST PUSH1 0x0 PUSH1 0x2 DUP3 DIV SWAP1 POP PUSH1 0x1 DUP3 AND DUP1 PUSH2 0x8D6 JUMPI PUSH1 0x7F DUP3 AND SWAP2 POP JUMPDEST PUSH1 0x20 DUP3 LT DUP2 SUB PUSH2 0x8E9 JUMPI PUSH2 0x8E8 PUSH2 0x88F JUMP JUMPDEST JUMPDEST POP SWAP2 SWAP1 POP JUMP JUMPDEST PUSH1 0x0 DUP2 SWAP1 POP DUP2 PUSH1 0x0 MSTORE PUSH1 0x20 PUSH1 0x0 KECCAK256 SWAP1 POP SWAP2 SWAP1 POP JUMP JUMPDEST PUSH1 0x0 PUSH1 0x20 PUSH1 0x1F DUP4 ADD DIV SWAP1 POP SWAP2 SWAP1 POP JUMP JUMPDEST PUSH1 0x0 DUP3 DUP3 SHL SWAP1 POP SWAP3 SWAP2 POP POP JUMP JUMPDEST PUSH1 0x0 PUSH1 0x8 DUP4 MUL PUSH2 0x951 PUSH32 0xFFFFFFFFFFFFFFFFFFFFFFFFFFFFFFFFFFFFFFFFFFFFFFFFFFFFFFFFFFFFFFFF DUP3 PUSH2 0x914 JUMP JUMPDEST PUSH2 0x95B DUP7 DUP4 PUSH2 0x914 JUMP JUMPDEST SWAP6 POP DUP1 NOT DUP5 AND SWAP4 POP DUP1 DUP7 AND DUP5 OR SWAP3 POP POP POP SWAP4 SWAP3 POP POP POP JUMP JUMPDEST PUSH1 0x0 DUP2 SWAP1 POP SWAP2 SWAP1 POP JUMP JUMPDEST PUSH1 0x0 PUSH2 0x998 PUSH2 0x993 PUSH2 0x98E DUP5 PUSH2 0x554 JUMP JUMPDEST PUSH2 0x973 JUMP JUMPDEST PUSH2 0x554 JUMP JUMPDEST SWAP1 POP SWAP2 SWAP1 POP JUMP JUMPDEST PUSH1 0x0 DUP2 SWAP1 POP SWAP2 SWAP1 POP JUMP JUMPDEST PUSH2 0x9B2 DUP4 PUSH2 0x97D JUMP JUMPDEST PUSH2 0x9C6 PUSH2 0x9BE DUP3 PUSH2 0x99F JUMP JUMPDEST DUP5 DUP5 SLOAD PUSH2 0x921 JUMP JUMPDEST DUP3 SSTORE POP POP POP POP JUMP JUMPDEST PUSH1 0x0 SWAP1 JUMP JUMPDEST PUSH2 0x9DB PUSH2 0x9CE JUMP JUMPDEST PUSH2 0x9E6 DUP2 DUP5 DUP5 PUSH2 0x9A9 JUMP JUMPDEST POP POP POP JUMP JUMPDEST JUMPDEST DUP2 DUP2 LT ISZERO PUSH2 0xA0A JUMPI PUSH2 0x9FF PUSH1 0x0 DUP3 PUSH2 0x9D3 JUMP JUMPDEST PUSH1 0x1 DUP2 ADD SWAP1 POP PUSH2 0x9EC JUMP JUMPDEST POP POP JUMP JUMPDEST PUSH1 0x1F DUP3 GT ISZERO PUSH2 0xA4F JUMPI PUSH2 0xA20 DUP2 PUSH2 0x8EF JUMP JUMPDEST PUSH2 0xA29 DUP5 PUSH2 0x904 JUMP JUMPDEST DUP2 ADD PUSH1 0x20 DUP6 LT ISZERO PUSH2 0xA38 JUMPI DUP2 SWAP1 POP JUMPDEST PUSH2 0xA4C PUSH2 0xA44 DUP6 PUSH2 0x904 JUMP JUMPDEST DUP4 ADD DUP3 PUSH2 0x9EB JUMP JUMPDEST POP POP JUMPDEST POP POP POP JUMP JUMPDEST PUSH1 0x0 DUP3 DUP3 SHR SWAP1 POP SWAP3 SWAP2 POP POP JUMP JUMPDEST PUSH1 0x0 PUSH2 0xA72 PUSH1 0x0 NOT DUP5 PUSH1 0x8 MUL PUSH2 0xA54 JUMP JUMPDEST NOT DUP1 DUP4 AND SWAP2 POP POP SWAP3 SWAP2 POP POP JUMP JUMPDEST PUSH1 0x0 PUSH2 0xA8B DUP4 DUP4 PUSH2 0xA61 JUMP JUMPDEST SWAP2 POP DUP3 PUSH1 0x2 MUL DUP3 OR SWAP1 POP SWAP3 SWAP2 POP POP JUMP JUMPDEST PUSH2 0xAA4 DUP3 PUSH2 0x5F5 JUMP JUMPDEST PUSH8 0xFFFFFFFFFFFFFFFF DUP2 GT ISZERO PUSH2 0xABD JUMPI PUSH2 0xABC PUSH2 0x6BF JUMP JUMPDEST JUMPDEST PUSH2 0xAC7 DUP3 SLOAD PUSH2 0x8BE JUMP JUMPDEST PUSH2 0xAD2 DUP3 DUP3 DUP6 PUSH2 0xA0E JUMP JUMPDEST PUSH1 0x0 PUSH1 0x20 SWAP1 POP PUSH1 0x1F DUP4 GT PUSH1 0x1 DUP2 EQ PUSH2 0xB05 JUMPI PUSH1 0x0 DUP5 ISZERO PUSH2 0xAF3 JUMPI DUP3 DUP8 ADD MLOAD SWAP1 POP JUMPDEST PUSH2 0xAFD DUP6 DUP3 PUSH2 0xA7F JUMP JUMPDEST DUP7 SSTORE POP PUSH2 0xB65 JUMP JUMPDEST PUSH1 0x1F NOT DUP5 AND PUSH2 0xB13 DUP7 PUSH2 0x8EF JUMP JUMPDEST PUSH1 0x0 JUMPDEST DUP3 DUP2 LT ISZERO PUSH2 0xB3B JUMPI DUP5 DUP10 ADD MLOAD DUP3 SSTORE PUSH1 0x1 DUP3 ADD SWAP2 POP PUSH1 0x20 DUP6 ADD SWAP5 POP PUSH1 0x20 DUP2 ADD SWAP1 POP PUSH2 0xB16 JUMP JUMPDEST DUP7 DUP4 LT ISZERO PUSH2 0xB58 JUMPI DUP5 DUP10 ADD MLOAD PUSH2 0xB54 PUSH1 0x1F DUP10 AND DUP3 PUSH2 0xA61 JUMP JUMPDEST DUP4 SSTORE POP JUMPDEST PUSH1 0x1 PUSH1 0x2 DUP9 MUL ADD DUP9 SSTORE POP POP POP JUMPDEST POP POP POP POP POP POP JUMP JUMPDEST PUSH1 0x0 DUP2 SWAP1 POP SWAP3 SWAP2 POP POP JUMP JUMPDEST PUSH1 0x0 PUSH2 0xB83 DUP3 PUSH2 0x5F5 JUMP JUMPDEST PUSH2 0xB8D DUP2 DUP6 PUSH2 0xB6D JUMP JUMPDEST SWAP4 POP PUSH2 0xB9D DUP2 DUP6 PUSH1 0x20 DUP7 ADD PUSH2 0x611 JUMP JUMPDEST DUP1 DUP5 ADD SWAP2 POP POP SWAP3 SWAP2 POP POP JUMP JUMPDEST PUSH1 0x0 PUSH2 0xBB5 DUP3 DUP5 PUSH2 0xB78 JUMP JUMPDEST SWAP2 POP DUP2 SWAP1 POP SWAP3 SWAP2 POP POP JUMP INVALID LOG2 PUSH5 0x6970667358 0x22 SLT KECCAK256 0xAA 0x5F 0x21 0xA6 MULMOD PUSH2 0x97B SHR SSTORE SIGNEXTEND CREATE2 ORIGIN 0xC 0x4B EXTCODEHASH MLOAD MOD 0x5D 0xCD 0xE0 JUMPDEST MLOAD 0xAA 0xB1 RETURNDATACOPY MLOAD SLT 0x22 SHL SWAP3 PUSH26 0x64736F6C63430008120033000000000000000000000000000000 "
		},
		"gasEstimates": {
			"creation": {
				"codeDepositCost": "612400",
				"executionCost": "infinite",
				"totalCost": "infinite"
			},
			"external": {
				"addPerson(string,uint256)": "infinite",
				"listOfPeople(uint256)": "infinite",
				"myFavouriteNumber()": "2430",
				"nameToFavouriteNumber(string)": "infinite",
				"pat()": "infinite",
				"pat2()": "infinite",
				"retriever()": "2437",
				"staticListOfPeople(uint256)": "infinite",
				"store(uint256)": "22565"
			}
		},
		"methodIdentifiers": {
			"addPerson(string,uint256)": "6f760f41",
			"listOfPeople(uint256)": "2ebce631",
			"myFavouriteNumber()": "2d7d7154",
			"nameToFavouriteNumber(string)": "b2ac62ef",
			"pat()": "b4a24f50",
			"pat2()": "dc709777",
			"retriever()": "85e022d0",
			"staticListOfPeople(uint256)": "9d5e89f9",
			"store(uint256)": "6057361d"
		}
	},
	"abi": [
		{
			"inputs": [
				{
					"internalType": "string",
					"name": "_name",
					"type": "string"
				},
				{
					"internalType": "uint256",
					"name": "_favouriteNumber",
					"type": "uint256"
				}
			],
			"name": "addPerson",
			"outputs": [],
			"stateMutability": "nonpayable",
			"type": "function"
		},
		{
			"inputs": [
				{
					"internalType": "uint256",
					"name": "",
					"type": "uint256"
				}
			],
			"name": "listOfPeople",
			"outputs": [
				{
					"internalType": "uint256",
					"name": "favouriteNumber",
					"type": "uint256"
				},
				{
					"internalType": "string",
					"name": "name",
					"type": "string"
				}
			],
			"stateMutability": "view",
			"type": "function"
		},
		{
			"inputs": [],
			"name": "myFavouriteNumber",
			"outputs": [
				{
					"internalType": "uint256",
					"name": "",
					"type": "uint256"
				}
			],
			"stateMutability": "view",
			"type": "function"
		},
		{
			"inputs": [
				{
					"internalType": "string",
					"name": "",
					"type": "string"
				}
			],
			"name": "nameToFavouriteNumber",
			"outputs": [
				{
					"internalType": "uint256",
					"name": "",
					"type": "uint256"
				}
			],
			"stateMutability": "view",
			"type": "function"
		},
		{
			"inputs": [],
			"name": "pat",
			"outputs": [
				{
					"internalType": "uint256",
					"name": "favouriteNumber",
					"type": "uint256"
				},
				{
					"internalType": "string",
					"name": "name",
					"type": "string"
				}
			],
			"stateMutability": "view",
			"type": "function"
		},
		{
			"inputs": [],
			"name": "pat2",
			"outputs": [
				{
					"internalType": "uint256",
					"name": "favouriteNumber",
					"type": "uint256"
				},
				{
					"internalType": "string",
					"name": "name",
					"type": "string"
				}
			],
			"stateMutability": "view",
			"type": "function"
		},
		{
			"inputs": [],
			"name": "retriever",
			"outputs": [
				{
					"internalType": "uint256",
					"name": "",
					"type": "uint256"
				}
			],
			"stateMutability": "view",
			"type": "function"
		},
		{
			"inputs": [
				{
					"internalType": "uint256",
					"name": "",
					"type": "uint256"
				}
			],
			"name": "staticListOfPeople",
			"outputs": [
				{
					"internalType": "uint256",
					"name": "favouriteNumber",
					"type": "uint256"
				},
				{
					"internalType": "string",
					"name": "name",
					"type": "string"
				}
			],
			"stateMutability": "view",
			"type": "function"
		},
		{
			"inputs": [
				{
					"internalType": "uint256",
					"name": "_favouriteNumber",
					"type": "uint256"
				}
			],
			"name": "store",
			"outputs": [],
			"stateMutability": "nonpayable",
			"type": "function"
		}
	]
}